{
    "contractName": "IBTToken",
    "abi": [
        {
            "inputs": [],
            "stateMutability": "nonpayable",
            "type": "constructor"
        },
        {
            "inputs": [
                {
                    "internalType": "address",
                    "name": "spender",
                    "type": "address"
                },
                {
                    "internalType": "uint256",
                    "name": "allowance",
                    "type": "uint256"
                },
                {
                    "internalType": "uint256",
                    "name": "needed",
                    "type": "uint256"
                }
            ],
            "name": "ERC20InsufficientAllowance",
            "type": "error"
        },
        {
            "inputs": [
                {
                    "internalType": "address",
                    "name": "sender",
                    "type": "address"
                },
                {
                    "internalType": "uint256",
                    "name": "balance",
                    "type": "uint256"
                },
                {
                    "internalType": "uint256",
                    "name": "needed",
                    "type": "uint256"
                }
            ],
            "name": "ERC20InsufficientBalance",
            "type": "error"
        },
        {
            "inputs": [
                {
                    "internalType": "address",
                    "name": "approver",
                    "type": "address"
                }
            ],
            "name": "ERC20InvalidApprover",
            "type": "error"
        },
        {
            "inputs": [
                {
                    "internalType": "address",
                    "name": "receiver",
                    "type": "address"
                }
            ],
            "name": "ERC20InvalidReceiver",
            "type": "error"
        },
        {
            "inputs": [
                {
                    "internalType": "address",
                    "name": "sender",
                    "type": "address"
                }
            ],
            "name": "ERC20InvalidSender",
            "type": "error"
        },
        {
            "inputs": [
                {
                    "internalType": "address",
                    "name": "spender",
                    "type": "address"
                }
            ],
            "name": "ERC20InvalidSpender",
            "type": "error"
        },
        {
            "anonymous": false,
            "inputs": [
                {
                    "indexed": true,
                    "internalType": "address",
                    "name": "owner",
                    "type": "address"
                },
                {
                    "indexed": true,
                    "internalType": "address",
                    "name": "spender",
                    "type": "address"
                },
                {
                    "indexed": false,
                    "internalType": "uint256",
                    "name": "value",
                    "type": "uint256"
                }
            ],
            "name": "Approval",
            "type": "event"
        },
        {
            "anonymous": false,
            "inputs": [
                {
                    "indexed": true,
                    "internalType": "address",
                    "name": "from",
                    "type": "address"
                },
                {
                    "indexed": true,
                    "internalType": "address",
                    "name": "to",
                    "type": "address"
                },
                {
                    "indexed": false,
                    "internalType": "uint256",
                    "name": "value",
                    "type": "uint256"
                }
            ],
            "name": "Transfer",
            "type": "event"
        },
        {
            "inputs": [
                {
                    "internalType": "address",
                    "name": "owner",
                    "type": "address"
                },
                {
                    "internalType": "address",
                    "name": "spender",
                    "type": "address"
                }
            ],
            "name": "allowance",
            "outputs": [
                {
                    "internalType": "uint256",
                    "name": "",
                    "type": "uint256"
                }
            ],
            "stateMutability": "view",
            "type": "function"
        },
        {
            "inputs": [
                {
                    "internalType": "address",
                    "name": "spender",
                    "type": "address"
                },
                {
                    "internalType": "uint256",
                    "name": "value",
                    "type": "uint256"
                }
            ],
            "name": "approve",
            "outputs": [
                {
                    "internalType": "bool",
                    "name": "",
                    "type": "bool"
                }
            ],
            "stateMutability": "nonpayable",
            "type": "function"
        },
        {
            "inputs": [
                {
                    "internalType": "address",
                    "name": "account",
                    "type": "address"
                }
            ],
            "name": "balanceOf",
            "outputs": [
                {
                    "internalType": "uint256",
                    "name": "",
                    "type": "uint256"
                }
            ],
            "stateMutability": "view",
            "type": "function"
        },
        {
            "inputs": [
                {
                    "internalType": "address",
                    "name": "from",
                    "type": "address"
                },
                {
                    "internalType": "uint256",
                    "name": "amount",
                    "type": "uint256"
                }
            ],
            "name": "burnFromPerson",
            "outputs": [],
            "stateMutability": "nonpayable",
            "type": "function"
        },
        {
            "inputs": [],
            "name": "decimals",
            "outputs": [
                {
                    "internalType": "uint8",
                    "name": "",
                    "type": "uint8"
                }
            ],
            "stateMutability": "view",
            "type": "function"
        },
        {
            "inputs": [
                {
                    "internalType": "uint256",
                    "name": "amount",
                    "type": "uint256"
                }
            ],
            "name": "hasTokens",
            "outputs": [
                {
                    "internalType": "bool",
                    "name": "",
                    "type": "bool"
                }
            ],
            "stateMutability": "view",
            "type": "function"
        },
        {
            "inputs": [
                {
                    "internalType": "address",
                    "name": "account",
                    "type": "address"
                },
                {
                    "internalType": "uint256",
                    "name": "amount",
                    "type": "uint256"
                }
            ],
            "name": "hasTokensDeployer",
            "outputs": [
                {
                    "internalType": "bool",
                    "name": "",
                    "type": "bool"
                }
            ],
            "stateMutability": "view",
            "type": "function"
        },
        {
            "inputs": [
                {
                    "internalType": "address",
                    "name": "to",
                    "type": "address"
                },
                {
                    "internalType": "uint256",
                    "name": "amount",
                    "type": "uint256"
                }
            ],
            "name": "mintToPerson",
            "outputs": [],
            "stateMutability": "nonpayable",
            "type": "function"
        },
        {
            "inputs": [],
            "name": "name",
            "outputs": [
                {
                    "internalType": "string",
                    "name": "",
                    "type": "string"
                }
            ],
            "stateMutability": "view",
            "type": "function"
        },
        {
            "inputs": [],
            "name": "symbol",
            "outputs": [
                {
                    "internalType": "string",
                    "name": "",
                    "type": "string"
                }
            ],
            "stateMutability": "view",
            "type": "function"
        },
        {
            "inputs": [],
            "name": "totalSupply",
            "outputs": [
                {
                    "internalType": "uint256",
                    "name": "",
                    "type": "uint256"
                }
            ],
            "stateMutability": "view",
            "type": "function"
        },
        {
            "inputs": [
                {
                    "internalType": "address",
                    "name": "to",
                    "type": "address"
                },
                {
                    "internalType": "uint256",
                    "name": "value",
                    "type": "uint256"
                }
            ],
            "name": "transfer",
            "outputs": [
                {
                    "internalType": "bool",
                    "name": "",
                    "type": "bool"
                }
            ],
            "stateMutability": "nonpayable",
            "type": "function"
        },
        {
            "inputs": [
                {
                    "internalType": "address",
                    "name": "from",
                    "type": "address"
                },
                {
                    "internalType": "address",
                    "name": "to",
                    "type": "address"
                },
                {
                    "internalType": "uint256",
                    "name": "value",
                    "type": "uint256"
                }
            ],
            "name": "transferFrom",
            "outputs": [
                {
                    "internalType": "bool",
                    "name": "",
                    "type": "bool"
                }
            ],
            "stateMutability": "nonpayable",
            "type": "function"
        }
    ],
    "bytecode": "60806040523461032457604080519081016001600160401b03811182821017610237576040908152600982526824a12a102a37b5b2b760b91b602083015280519081016001600160401b0381118282101761023757604052600381526212509560ea1b602082015281516001600160401b03811161023757600354600181811c9116801561031a575b602082101461021957601f81116102b7575b50602092601f821160011461025657928192935f9261024b575b50508160011b915f199060031b1c1916176003555b80516001600160401b03811161023757600454600181811c9116801561022d575b602082101461021957601f81116101b6575b50602091601f8211600114610156579181925f9261014b575b50508160011b915f199060031b1c1916176004555b600580546001600160a01b0319163317905560405161084f90816103298239f35b015190505f80610115565b601f1982169260045f52805f20915f5b85811061019e57508360019510610186575b505050811b0160045561012a565b01515f1960f88460031b161c191690555f8080610178565b91926020600181928685015181550194019201610166565b60045f527f8a35acfbc15ff81a39ae7d344fd709f28e8600b4aa8c65c6b64bfe7fe36bd19b601f830160051c8101916020841061020f575b601f0160051c01905b81811061020457506100fc565b5f81556001016101f7565b90915081906101ee565b634e487b7160e01b5f52602260045260245ffd5b90607f16906100ea565b634e487b7160e01b5f52604160045260245ffd5b015190505f806100b4565b601f1982169360035f52805f20915f5b86811061029f5750836001959610610287575b505050811b016003556100c9565b01515f1960f88460031b161c191690555f8080610279565b91926020600181928685015181550194019201610266565b60035f527fc2575a0e9e593c00f959f8c92f12db2869c3395a3b0502d05e2516446f71f85b601f830160051c81019160208410610310575b601f0160051c01905b818110610305575061009a565b5f81556001016102f8565b90915081906102ef565b90607f1690610088565b5f80fdfe6080806040526004361015610012575f80fd5b5f3560e01c90816306fdde03146104c557508063095ea7b31461044357806318160ddd1461042657806323b872dd14610346578063313ce5671461032b57806370a08231146102f45780638cfa977a146102c857806395d89b41146101ad578063a03f468d1461017c578063a0c1424f14610157578063a9059cbb14610126578063dd62ed3e146100d65763ff21dbb6146100ab575f80fd5b346100d25760403660031901126100d2576100d06100c76105be565b602435906106bb565b005b5f80fd5b346100d25760403660031901126100d2576100ef6105be565b6100f76105d4565b6001600160a01b039182165f908152600160209081526040808320949093168252928352819020549051908152f35b346100d25760403660031901126100d25761014c6101426105be565b6024359033610782565b602060405160018152f35b346100d25760403660031901126100d2576100d06101736105be565b6024359061061e565b346100d25760403660031901126100d25760206101a361019a6105be565b602435906105ea565b6040519015158152f35b346100d2575f3660031901126100d2576040515f6004548060011c906001811680156102be575b6020831081146102aa5782855290811561028e5750600114610239575b50819003601f01601f191681019067ffffffffffffffff8211818310176102255761022182918260405282610594565b0390f35b634e487b7160e01b5f52604160045260245ffd5b905060045f527f8a35acfbc15ff81a39ae7d344fd709f28e8600b4aa8c65c6b64bfe7fe36bd19b5f905b828210610278575060209150820101826101f1565b6001816020925483858801015201910190610263565b90506020925060ff191682840152151560051b820101826101f1565b634e487b7160e01b5f52602260045260245ffd5b91607f16916101d4565b346100d25760203660031901126100d257335f525f602052602060043560405f20541015604051908152f35b346100d25760203660031901126100d2576001600160a01b036103156105be565b165f525f602052602060405f2054604051908152f35b346100d2575f3660031901126100d257602060405160128152f35b346100d25760603660031901126100d25761035f6105be565b6103676105d4565b6001600160a01b0382165f8181526001602081815260408084203385529091529091205491936044359392909181016103a6575b5061014c9350610782565b83811061040b5784156103f85733156103e55761014c945f52600160205260405f2060018060a01b0333165f526020528360405f20910390558461039b565b634a1406b160e11b5f525f60045260245ffd5b63e602df0560e01b5f525f60045260245ffd5b8390637dc7a0d960e11b5f523360045260245260445260645ffd5b346100d2575f3660031901126100d2576020600254604051908152f35b346100d25760403660031901126100d25761045c6105be565b6024359033156103f8576001600160a01b03169081156103e557335f52600160205260405f20825f526020528060405f20556040519081527f8c5be1e5ebec7d5bd14f71427d1e84f3dd0314c0f7b2291e5b200ac8c7c3b92560203392a3602060405160018152f35b346100d2575f3660031901126100d2575f6003548060011c9060018116801561058a575b6020831081146102aa5782855290811561028e57506001146105355750819003601f01601f191681019067ffffffffffffffff8211818310176102255761022182918260405282610594565b905060035f527fc2575a0e9e593c00f959f8c92f12db2869c3395a3b0502d05e2516446f71f85b5f905b828210610574575060209150820101826101f1565b600181602092548385880101520191019061055f565b91607f16916104e9565b602060409281835280519182918282860152018484015e5f828201840152601f01601f1916010190565b600435906001600160a01b03821682036100d257565b602435906001600160a01b03821682036100d257565b6005546001600160a01b03163303610618576001600160a01b03165f90815260208190526040902054101590565b50505f90565b6005546001600160a01b031633036106b7576001600160a01b03169081156106a457600254908082018092116106905760207fddf252ad1be2c89b69c2b068fc378daa952ba7f163c4a11628f55a4df523b3ef915f9360025584845283825260408420818154019055604051908152a3565b634e487b7160e01b5f52601160045260245ffd5b63ec442f0560e01b5f525f60045260245ffd5b5050565b6005549192916001600160a01b03163314801590610771575b61076c576001600160a01b0316801561075957805f525f60205260405f205483811061073f576020845f94957fddf252ad1be2c89b69c2b068fc378daa952ba7f163c4a11628f55a4df523b3ef938587528684520360408620558060025403600255604051908152a3565b915063391434e360e21b5f5260045260245260445260645ffd5b634b637e8f60e11b5f525f60045260245ffd5b509050565b5061077c83826105ea565b156106d4565b6001600160a01b0316908115610759576001600160a01b03169182156106a457815f525f60205260405f205481811061080057817fddf252ad1be2c89b69c2b068fc378daa952ba7f163c4a11628f55a4df523b3ef92602092855f525f84520360405f2055845f525f825260405f20818154019055604051908152a3565b8263391434e360e21b5f5260045260245260445260645ffdfea2646970667358221220637ea95e7045a3c54b8fa78bb417df923a0918ed52c6a262ce9410575e59e85f64736f6c634300081c0033",
    "sourcePath": "/home/alex/IBT Bridge/EthereumToken/IBT_token.sol",
    "compiler": {
        "name": "solc",
        "version": "0.8.28+commit.7893614a"
    },
    "functionHashes": {
        "allowance(address,address)": "dd62ed3e",
        "approve(address,uint256)": "095ea7b3",
        "balanceOf(address)": "70a08231",
        "burnFromPerson(address,uint256)": "ff21dbb6",
        "decimals()": "313ce567",
        "hasTokens(uint256)": "8cfa977a",
        "hasTokensDeployer(address,uint256)": "a03f468d",
        "mintToPerson(address,uint256)": "a0c1424f",
        "name()": "06fdde03",
        "symbol()": "95d89b41",
        "totalSupply()": "18160ddd",
        "transfer(address,uint256)": "a9059cbb",
        "transferFrom(address,address,uint256)": "23b872dd"
    },
    "gasEstimates": {
        "creation": {
            "codeDepositCost": "425400",
            "executionCost": "infinite",
            "totalCost": "infinite"
        },
        "external": {
            "allowance(address,address)": "2815",
            "approve(address,uint256)": "24325",
            "balanceOf(address)": "2515",
            "burnFromPerson(address,uint256)": "57452",
            "decimals()": "241",
            "hasTokens(uint256)": "2460",
            "hasTokensDeployer(address,uint256)": "4779",
            "mintToPerson(address,uint256)": "52922",
            "name()": "infinite",
            "symbol()": "infinite",
            "totalSupply()": "2300",
            "transfer(address,uint256)": "50974",
            "transferFrom(address,address,uint256)": "75527"
        }
    }
}